{
  "_format": "hh-sol-artifact-1",
  "contractName": "AURA",
  "sourceName": "contracts/aura.sol",
  "abi": [
    {
      "inputs": [],
      "stateMutability": "nonpayable",
      "type": "constructor"
    },
    {
      "anonymous": false,
      "inputs": [
        {
          "indexed": true,
          "internalType": "address",
          "name": "owner",
          "type": "address"
        },
        {
          "indexed": true,
          "internalType": "address",
          "name": "spender",
          "type": "address"
        },
        {
          "indexed": false,
          "internalType": "uint256",
          "name": "value",
          "type": "uint256"
        }
      ],
      "name": "Approval",
      "type": "event"
    },
    {
      "anonymous": false,
      "inputs": [
        {
          "indexed": true,
          "internalType": "address",
          "name": "previousOwner",
          "type": "address"
        },
        {
          "indexed": true,
          "internalType": "address",
          "name": "newOwner",
          "type": "address"
        }
      ],
      "name": "OwnershipTransferred",
      "type": "event"
    },
    {
      "anonymous": false,
      "inputs": [
        {
          "indexed": true,
          "internalType": "address",
          "name": "from",
          "type": "address"
        },
        {
          "indexed": true,
          "internalType": "address",
          "name": "to",
          "type": "address"
        },
        {
          "indexed": false,
          "internalType": "uint256",
          "name": "value",
          "type": "uint256"
        }
      ],
      "name": "Transfer",
      "type": "event"
    },
    {
      "inputs": [],
      "name": "Name",
      "outputs": [
        {
          "internalType": "string",
          "name": "",
          "type": "string"
        }
      ],
      "stateMutability": "view",
      "type": "function"
    },
    {
      "inputs": [],
      "name": "Symbol",
      "outputs": [
        {
          "internalType": "string",
          "name": "",
          "type": "string"
        }
      ],
      "stateMutability": "view",
      "type": "function"
    },
    {
      "inputs": [
        {
          "internalType": "address",
          "name": "account",
          "type": "address"
        },
        {
          "internalType": "uint256",
          "name": "amount",
          "type": "uint256"
        }
      ],
      "name": "_burn",
      "outputs": [],
      "stateMutability": "nonpayable",
      "type": "function"
    },
    {
      "inputs": [],
      "name": "_decimals",
      "outputs": [
        {
          "internalType": "uint8",
          "name": "",
          "type": "uint8"
        }
      ],
      "stateMutability": "view",
      "type": "function"
    },
    {
      "inputs": [],
      "name": "_name",
      "outputs": [
        {
          "internalType": "string",
          "name": "",
          "type": "string"
        }
      ],
      "stateMutability": "view",
      "type": "function"
    },
    {
      "inputs": [],
      "name": "_symbol",
      "outputs": [
        {
          "internalType": "string",
          "name": "",
          "type": "string"
        }
      ],
      "stateMutability": "view",
      "type": "function"
    },
    {
      "inputs": [
        {
          "internalType": "address",
          "name": "owner",
          "type": "address"
        },
        {
          "internalType": "address",
          "name": "spender",
          "type": "address"
        }
      ],
      "name": "allowance",
      "outputs": [
        {
          "internalType": "uint256",
          "name": "",
          "type": "uint256"
        }
      ],
      "stateMutability": "view",
      "type": "function"
    },
    {
      "inputs": [
        {
          "internalType": "address",
          "name": "spender",
          "type": "address"
        },
        {
          "internalType": "uint256",
          "name": "amount",
          "type": "uint256"
        }
      ],
      "name": "approve",
      "outputs": [
        {
          "internalType": "bool",
          "name": "",
          "type": "bool"
        }
      ],
      "stateMutability": "nonpayable",
      "type": "function"
    },
    {
      "inputs": [
        {
          "internalType": "address",
          "name": "account",
          "type": "address"
        }
      ],
      "name": "balanceOf",
      "outputs": [
        {
          "internalType": "uint256",
          "name": "",
          "type": "uint256"
        }
      ],
      "stateMutability": "view",
      "type": "function"
    },
    {
      "inputs": [
        {
          "internalType": "uint256",
          "name": "amount",
          "type": "uint256"
        }
      ],
      "name": "burn",
      "outputs": [
        {
          "internalType": "bool",
          "name": "",
          "type": "bool"
        }
      ],
      "stateMutability": "nonpayable",
      "type": "function"
    },
    {
      "inputs": [],
      "name": "decimals",
      "outputs": [
        {
          "internalType": "uint8",
          "name": "",
          "type": "uint8"
        }
      ],
      "stateMutability": "view",
      "type": "function"
    },
    {
      "inputs": [
        {
          "internalType": "address",
          "name": "spender",
          "type": "address"
        },
        {
          "internalType": "uint256",
          "name": "subtractedValue",
          "type": "uint256"
        }
      ],
      "name": "decreaseAllowance",
      "outputs": [
        {
          "internalType": "bool",
          "name": "",
          "type": "bool"
        }
      ],
      "stateMutability": "nonpayable",
      "type": "function"
    },
    {
      "inputs": [
        {
          "internalType": "address",
          "name": "spender",
          "type": "address"
        },
        {
          "internalType": "uint256",
          "name": "addedValue",
          "type": "uint256"
        }
      ],
      "name": "increaseAllowance",
      "outputs": [
        {
          "internalType": "bool",
          "name": "",
          "type": "bool"
        }
      ],
      "stateMutability": "nonpayable",
      "type": "function"
    },
    {
      "inputs": [
        {
          "internalType": "address",
          "name": "to",
          "type": "address"
        },
        {
          "internalType": "uint256",
          "name": "amount",
          "type": "uint256"
        }
      ],
      "name": "mint",
      "outputs": [],
      "stateMutability": "nonpayable",
      "type": "function"
    },
    {
      "inputs": [],
      "name": "name",
      "outputs": [
        {
          "internalType": "string",
          "name": "",
          "type": "string"
        }
      ],
      "stateMutability": "view",
      "type": "function"
    },
    {
      "inputs": [],
      "name": "owner",
      "outputs": [
        {
          "internalType": "address",
          "name": "",
          "type": "address"
        }
      ],
      "stateMutability": "view",
      "type": "function"
    },
    {
      "inputs": [],
      "name": "renounceOwnership",
      "outputs": [],
      "stateMutability": "nonpayable",
      "type": "function"
    },
    {
      "inputs": [],
      "name": "symbol",
      "outputs": [
        {
          "internalType": "string",
          "name": "",
          "type": "string"
        }
      ],
      "stateMutability": "view",
      "type": "function"
    },
    {
      "inputs": [],
      "name": "totalSupply",
      "outputs": [
        {
          "internalType": "uint256",
          "name": "",
          "type": "uint256"
        }
      ],
      "stateMutability": "view",
      "type": "function"
    },
    {
      "inputs": [
        {
          "internalType": "address",
          "name": "recipient",
          "type": "address"
        },
        {
          "internalType": "uint256",
          "name": "amount",
          "type": "uint256"
        }
      ],
      "name": "transfer",
      "outputs": [
        {
          "internalType": "bool",
          "name": "",
          "type": "bool"
        }
      ],
      "stateMutability": "nonpayable",
      "type": "function"
    },
    {
      "inputs": [
        {
          "internalType": "address",
          "name": "sender",
          "type": "address"
        },
        {
          "internalType": "address",
          "name": "recipient",
          "type": "address"
        },
        {
          "internalType": "uint256",
          "name": "amount",
          "type": "uint256"
        }
      ],
      "name": "transferFrom",
      "outputs": [
        {
          "internalType": "bool",
          "name": "",
          "type": "bool"
        }
      ],
      "stateMutability": "nonpayable",
      "type": "function"
    },
    {
      "inputs": [
        {
          "internalType": "address",
          "name": "newOwner",
          "type": "address"
        }
      ],
      "name": "transferOwnership",
      "outputs": [],
      "stateMutability": "nonpayable",
      "type": "function"
    }
  ],
  "bytecode": "0x60806040523480156200001157600080fd5b50600080546001600160a01b031916339081178255604051909182917f8be0079c531659141344cd1fd0a4f28419497f9722a3daafe3b4186f6b6457e0908290a3506040805180820190915260048152634155524160e01b60208201526006906200007d9082620001b4565b506040805180820190915260048152634155524160e01b6020820152600590620000a89082620001b4565b506004805460ff191660121790556003543360008181526001602052604080822084905551919290917fddf252ad1be2c89b69c2b068fc378daa952ba7f163c4a11628f55a4df523b3ef91620001019190815260200190565b60405180910390a362000280565b634e487b7160e01b600052604160045260246000fd5b600181811c908216806200013a57607f821691505b6020821081036200015b57634e487b7160e01b600052602260045260246000fd5b50919050565b601f821115620001af57600081815260208120601f850160051c810160208610156200018a5750805b601f850160051c820191505b81811015620001ab5782815560010162000196565b5050505b505050565b81516001600160401b03811115620001d057620001d06200010f565b620001e881620001e1845462000125565b8462000161565b602080601f831160018114620002205760008415620002075750858301515b600019600386901b1c1916600185901b178555620001ab565b600085815260208120601f198616915b82811015620002515788860151825594840194600190910190840162000230565b5085821015620002705787850151600019600388901b60f8161c191681555b5050505050600190811b01905550565b610eff80620002906000396000f3fe608060405234801561001057600080fd5b50600436106101425760003560e01c806370a08231116100b8578063a457c2d71161007c578063a457c2d714610298578063a9059cbb146102ab578063b09f1266146102be578063d28d8852146102c6578063dd62ed3e146102ce578063f2fde38b1461030757600080fd5b806370a0823114610244578063715018a61461026d5780638052474d146101ad5780638da5cb5b1461027557806395d89b411461029057600080fd5b8063313ce5671161010a578063313ce567146101d057806332424aa3146101e957806339509351146101f657806340c10f191461020957806342966c681461021e5780636161eb181461023157600080fd5b806306fdde0314610147578063095ea7b31461016557806318160ddd1461018857806323b872dd1461019a5780633045aaf3146101ad575b600080fd5b61014f61031a565b60405161015c9190610cc5565b60405180910390f35b610178610173366004610d2f565b6103ac565b604051901515815260200161015c565b6003545b60405190815260200161015c565b6101786101a8366004610d59565b6103c3565b61014f604051806040016040528060048152602001634155524160e01b81525081565b60045460ff165b60405160ff909116815260200161015c565b6004546101d79060ff1681565b610178610204366004610d2f565b61042c565b61021c610217366004610d2f565b610462565b005b61017861022c366004610d95565b6104a3565b61021c61023f366004610d2f565b6104b7565b61018c610252366004610dae565b6001600160a01b031660009081526001602052604090205490565b61021c6105d7565b6000546040516001600160a01b03909116815260200161015c565b61014f61064b565b6101786102a6366004610d2f565b61065a565b6101786102b9366004610d2f565b6106d7565b61014f6106e4565b61014f610772565b61018c6102dc366004610dc9565b6001600160a01b03918216600090815260026020908152604080832093909416825291909152205490565b61021c610315366004610dae565b61077f565b60606006805461032990610dfc565b80601f016020809104026020016040519081016040528092919081815260200182805461035590610dfc565b80156103a25780601f10610377576101008083540402835291602001916103a2565b820191906000526020600020905b81548152906001019060200180831161038557829003601f168201915b5050505050905090565b60006103b93384846107b5565b5060015b92915050565b6000610417843361041285604051806060016040528060228152602001610ea8602291396001600160a01b038a16600090815260026020908152604080832033845290915290205491906108c3565b6107b5565b6104228484846108fd565b5060019392505050565b3360008181526002602090815260408083206001600160a01b038716845290915281205490916103b99185906104129086610a83565b6000546001600160a01b031633146104955760405162461bcd60e51b815260040161048c90610e36565b60405180910390fd5b61049f8282610ae9565b5050565b60006104af33836104b7565b506001919050565b6001600160a01b03821661050d5760405162461bcd60e51b815260206004820152601a60248201527f6275726e2066726f6d20746865207a65726f2061646472657373000000000000604482015260640161048c565b604080518082018252601d81527f3a206275726e20616d6f756e7420657863656564732062616c616e63650000006020808301919091526001600160a01b0385166000908152600190915291909120546105689183906108c3565b6001600160a01b03831660009081526001602052604090205560035461058e9082610bc3565b6003556040518181526000906001600160a01b038416907fddf252ad1be2c89b69c2b068fc378daa952ba7f163c4a11628f55a4df523b3ef906020015b60405180910390a35050565b6000546001600160a01b031633146106015760405162461bcd60e51b815260040161048c90610e36565b600080546040516001600160a01b03909116907f8be0079c531659141344cd1fd0a4f28419497f9722a3daafe3b4186f6b6457e0908390a3600080546001600160a01b0319169055565b60606005805461032990610dfc565b60006103b93384610412856040518060400160405280601f81526020017f2064656372656173656420616c6c6f77616e63652062656c6f77207a65726f00815250600260006106a63390565b6001600160a01b03908116825260208083019390935260409182016000908120918d168152925290205491906108c3565b60006103b93384846108fd565b600580546106f190610dfc565b80601f016020809104026020016040519081016040528092919081815260200182805461071d90610dfc565b801561076a5780601f1061073f5761010080835404028352916020019161076a565b820191906000526020600020905b81548152906001019060200180831161074d57829003601f168201915b505050505081565b600680546106f190610dfc565b6000546001600160a01b031633146107a95760405162461bcd60e51b815260040161048c90610e36565b6107b281610c05565b50565b6001600160a01b03831661080b5760405162461bcd60e51b815260206004820181905260248201527f3a20617070726f76652066726f6d6d20746865207a65726f2061646472657373604482015260640161048c565b6001600160a01b0382166108615760405162461bcd60e51b815260206004820152601e60248201527f3a20617070726f76656520746f20746865207a65726f20616464726573730000604482015260640161048c565b6001600160a01b0383811660008181526002602090815260408083209487168084529482529182902085905590518481527f8c5be1e5ebec7d5bd14f71427d1e84f3dd0314c0f7b2291e5b200ac8c7c3b92591015b60405180910390a3505050565b600081848411156108e75760405162461bcd60e51b815260040161048c9190610cc5565b5060006108f48486610e81565b95945050505050565b6001600160a01b0383166109535760405162461bcd60e51b815260206004820152601f60248201527f207472616e736665722066726f6d20746865207a65726f206164647265737300604482015260640161048c565b6001600160a01b0382166109a95760405162461bcd60e51b815260206004820152601d60248201527f207472616e7366657220746f20746865207a65726f2061646472657373000000604482015260640161048c565b60408051808201825260208082527f207472616e7366657220616d6f756e7420657863656564732062616c616e6365818301526001600160a01b038616600090815260019091529190912054610a009183906108c3565b6001600160a01b038085166000908152600160205260408082209390935590841681522054610a2f9082610a83565b6001600160a01b0380841660008181526001602052604090819020939093559151908516907fddf252ad1be2c89b69c2b068fc378daa952ba7f163c4a11628f55a4df523b3ef906108b69085815260200190565b600080610a908385610e94565b905083811015610ae25760405162461bcd60e51b815260206004820152601b60248201527f536166654d6174683a206164646974696f6e206f766572666c6f770000000000604482015260640161048c565b9392505050565b6001600160a01b038216610b3f5760405162461bcd60e51b815260206004820152601960248201527f206d696e7420746f20746865207a65726f206164647265737300000000000000604482015260640161048c565b600354610b4c9082610a83565b6003556001600160a01b038216600090815260016020526040902054610b729082610a83565b6001600160a01b0383166000818152600160205260408082209390935591519091907fddf252ad1be2c89b69c2b068fc378daa952ba7f163c4a11628f55a4df523b3ef906105cb9085815260200190565b6000610ae283836040518060400160405280601e81526020017f536166654d6174683a207375627472616374696f6e206f766572666c6f7700008152506108c3565b6001600160a01b038116610c6a5760405162461bcd60e51b815260206004820152602660248201527f4f776e61626c653a206e6577206f776e657220697320746865207a65726f206160448201526564647265737360d01b606482015260840161048c565b600080546040516001600160a01b03808516939216917f8be0079c531659141344cd1fd0a4f28419497f9722a3daafe3b4186f6b6457e091a3600080546001600160a01b0319166001600160a01b0392909216919091179055565b600060208083528351808285015260005b81811015610cf257858101830151858201604001528201610cd6565b506000604082860101526040601f19601f8301168501019250505092915050565b80356001600160a01b0381168114610d2a57600080fd5b919050565b60008060408385031215610d4257600080fd5b610d4b83610d13565b946020939093013593505050565b600080600060608486031215610d6e57600080fd5b610d7784610d13565b9250610d8560208501610d13565b9150604084013590509250925092565b600060208284031215610da757600080fd5b5035919050565b600060208284031215610dc057600080fd5b610ae282610d13565b60008060408385031215610ddc57600080fd5b610de583610d13565b9150610df360208401610d13565b90509250929050565b600181811c90821680610e1057607f821691505b602082108103610e3057634e487b7160e01b600052602260045260246000fd5b50919050565b6020808252818101527f4f776e61626c653a2063616c6c6572206973206e6f7420746865206f776e6572604082015260600190565b634e487b7160e01b600052601160045260246000fd5b818103818111156103bd576103bd610e6b565b808201808211156103bd576103bd610e6b56fe207472616e7366657220616d6f756e74206578636565647320616c6c6f77616e6365a26469706673582212208be5d9646e5b8a0f33e5e16fa4818d6fdc2022470ed1a501d0bc1fdbbcfd794e64736f6c63430008120033",
  "linkReferences": {},
  "deployedLinkReferences": {}
}